:030000000201CB2F
:0100030032CA
:03000B00020108E7
:0100130032BA
:01001B0032B2
:0100230032AA
:03002B000201438C
:10002E00C000788500D8FDD00022C000C00179281C
:10003E007868D8FED9FADAF6D001D00022D294121E
:10004E00002EC29422A2E79283A2E69282A2E592A9
:10005E0081A2E4928012004B12002EA2E39283A2A0
:10006E00E29282A2E19281A2E0928012004B22D211
:10007E0093020053C293020053C294C0027A281214
:10008E000038D0027433120082743312008274323C
:10009E001200827428120082740C120082740112F3
:1000AE000082C0027A02120038D00222E493600667
:1000BE0012007DA380F62244404480020082C0E0FC
:1000CE00E8C4540F443012007DE8540F443012003F
:1000DE007DD0E0227878203A207878203A207878FF
:1000EE0020787800438E08E58954F04401F589752F
:1000FE008CF0758A2CD2A9D28C22C28DC28C758CB2
:10010E00F0758A2CD28C30030EC28C758CF0758AE9
:10011E002CD28CB297C2033275C80075CDBF75CC88
:10012E002843C98075CBBF75CA28E4F530F5314335
:10013E009B80D2CA22C2CFB284C0E0C0D02001427E
:10014E000530E53070020531E530B4E835E531B4FF
:10015E000330D200B28CE4F530F531E5332401D40E
:10016E00F533B4601D753300E5342401D4F534B491
:10017E006010753400E5352401D4F535B4130375DC
:10018E003501E533B40018E534B40013E535B41287
:10019E000EE536B4010575360080E77401F536E5D7
:1001AE0033B53714E534B5380FE535B5390AE536CC
:1001BE00B53A05D2030201C6D0D0D0E03275817FA8
:1001CE0075B10075B20075B30075B40075AD0075EC
:1001DE00AD001200F2120126D2AF120087C0E074F9
:1001EE0001141200C7D0E0C083C082C0E09000E2CC
:1001FE001200BAD0E0D082D083D20075351175349A
:10020E0059753350753600C201C2027539117538F1
:10021E0059753750753A00C204209524C0027A32BF
:10022E00120038D0022095183095FDC2CAE4F53080
:10023E00F531D2CA200105D20102024EC20180D987
:10024E0020B02BC0027A32120038D00220B01F30FC
:10025E00B0FDC2CAE4F530F531D2CAD2042002058F
:10026E00D202020227C20280B020010280003001B9
:10027E002220021F20851CC0027A32120038D002C2
:10028E002085103085FDE5332401D4F533B46003A9
:10029E0075330030012220021F20901CC0027A32DA
:1002AE00120038D0022090103090FDE5342401D495
:1002BE00F534B460037534003001252002482096D1
:1002CE001FC0027A32120038D0022096133096FDEB
:1002DE00E5352401D4F535B413067535010203A3B3
:1002EE00200223309220C0027A32120038D002202F
:1002FE0092143092FDE536B40006753601020314F1
:10030E0075360030020020011F20851CC0027A3293
:10031E00120038D0022085103085FDE5372401D437
:10032E00F537B4600375370020011F20901CC00202
:10033E007A32120038D0022090103090FDE5382429
:10034E0001D4F538B4600375380020012220961FC1
:10035E00C0027A32120038D0022096133096FDE594
:10036E00392401D4F539B413067539010203A320DB
:10037E000123309220C0027A32120038D00220922D
:10038E00143092FDE53AB40006753A010203A375E6
:10039E003A0030020020023BC200C0E07401141289
:1003AE0000C7D0E0C000A8351200CCD000C0E07469
:1003BE0006141200C7D0E0C000A8341200CCD00042
:1003CE00C0E0740B141200C7D0E0C000A8331200B6
:1003DE00CCD000C0E07401141200C5D0E0C0E074AF
:1003EE004312007DD0E0C0E07402141200C5D0E0CC
:1003FE00C0E0746C12007DD0E0C0E07403141200F3
:10040E00C5D0E0C0E0746F12007DD0E0C0E074048F
:10041E00141200C5D0E0C0E0746312007DD0E0C0BD
:10042E00E07405141200C5D0E0C0E0746B12007DBC
:10043E00D0E0200257E536B40129C0E0740E141244
:10044E0000C7D0E0C0E0745012007DD0E0C0E07470
:10045E000F141200C7D0E0C0E0744D12007DD0E042
:10046E00020227C0E0740E141200C7D0E0C0E07480
:10047E004112007DD0E0C0E0740F141200C7D0E02E
:10048E00C0E0744D12007DD0E0020227C200C0E031
:10049E007401141200C7D0E0C000A8391200CCD0ED
:1004AE0000C0E07406141200C7D0E0C000A83812D5
:1004BE0000CCD000C0E0740B141200C7D0E0C00016
:1004CE00A8371200CCD000C0E07401141200C5D0C1
:1004DE00E0C0E0745412007DD0E0C0E0740214124B
:1004EE0000C5D0E0C0E0746912007DD0E0C0E074B9
:1004FE0003141200C5D0E0C0E0746D12007DD0E090
:10050E00C0E07404141200C5D0E0C0E0746512009F
:10051E007DD0E0C0E07405141200C5D0E0C0E074D8
:10052E007212007DD0E0E53AB40133C0E0740E14CF
:10053E001200C7D0E0C0E0745012007DD0E0C0E0E1
:10054E00740F141200C7D0E0C0E0744D12007DD0BD
:10055E00E0C0E07401141200C5D0E0020227C0E032
:10056E00740E141200C7D0E0C0E0744112007DD0AA
:10057E00E0C0E0740F141200C7D0E0C0E0744D125A
:07058E00007DD0E00202270E
:00000001FF
